:02000002F0000C
:1040000000000420C19F0F00E99F0F00EB9F0F00ED
:10401000ED9F0F00EF9F0F00F19F0F0000000000C9
:10402000000000000000000000000000214C0F0014
:10403000F59F0F0000000000F79F0F00AD480F0034
:10404000994D0F00FB9F0F00FB9F0F00FB9F0F0080
:10405000FB9F0F00FB9F0F00FB9F0F00FB9F0F00BC
:10406000FB9F0F00FB9F0F00FB9F0F00FB9F0F00AC
:10407000FB9F0F00FB9F0F00FB9F0F00FB9F0F009C
:10408000FB9F0F00C96F0F00FB9F0F00FB9F0F00EE
:1040900085700F00FB9F0F0075470F00FB9F0F00FF
:1040A000FB9F0F00FB9F0F00FB9F0F00FB9F0F006C
:1040B000FB9F0F00FB9F0F000000000000000000AE
:1040C000FB9F0F00FB9F0F00FB9F0F00FB9F0F004C
:1040D000FB9F0F00FB9F0F00FB9F0F008D890F00C0
:1040E000FB9F0F00FB9F0F00FB9F0F0000000000D5
:1040F00000000000FB9F0F0000000000FB9F0F006E
:1041000000000000000000000000000000000000AF
:10411000000000000000000000000000000000009F
:10412000000000000000000000000000000000008F
:10413000000000000000000000000000000000007F
:10414000000000000000000000000000000000006F
:10415000000000000000000000000000000000005F
:10416000000000000000000000000000000000004F
:10417000000000000000000000000000000000003F
:10418000000000000000000000000000000000002F
:10419000000000000000000000000000000000001F
:1041A000000000000000000000000000000000000F
:1041B00000000000000000000000000000000000FF
:1041C00000000000000000000000000000000000EF
:1041D00000000000000000000000000000000000DF
:1041E00000000000000000000000000000000000CF
:1041F00000000000000000000000000000000000BF
:1042000010B5054C237833B9044B13B10448AFF310
:1042100000800123237010BD5481002000000000A5
:10422000F8AF0F0008B5034B1BB103490348AFF3C8
:10423000008008BD0000000058810020F8AF0F008A
:10424000154B002B08BF134B9D46A3F5803A002168
:104250008B460F461348144A121A00F063F80F4BAE
:10426000002B00D098470E4B002B00D09847002021
:10427000002104000D000D48002802D00C48AFF3C7
:10428000008000F02BF82000290000F0A7F800F0D3
:1042900011F800BF0000080000000420000000002A
:1042A0000000000054810020E8DA00200000000037
:1042B0000000000008B5074B044613B10021AFF31E
:1042C0000080054B1868836A03B19847204600F0C8
:1042D00031F800BF000000005CAC0F0070B50D4D60
:1042E0000D4C641BA4100026A64209D10B4D0C4CAA
:1042F00006F0A8FC641BA4100026A64205D170BDE0
:1043000055F8043B98470136EEE755F8043B9847CB
:104310000136F2E74C8100204C8100204C810020C6
:104320005081002002440346934200D1704703F8B5
:10433000011BF9E7FEE700BFBFF34F8F0549064BAE
:10434000CA6802F4E0621343CB60BFF34F8F00BF33
:10435000FDE700BF00ED00E00400FA054BDF704709
:1043600010DF704711DF704713DF704718DF7047A9
:1043700060DF704769DF704761DF704708B5034B46
:104380001B68DB0700D500BEFFF7D6FFF0ED00E0AD
:10439000014B1878704700BF718100201FB50023C2
:1043A000CDE901330393684602230093FFF7DEFF54
:1043B00005B05DF804FB08B5032000F035FB4FF4B1
:1043C0006D2000F041FD43F20803186800F03CFD49
:1043D0000420BDE8084000F027BB00002DE9F04FA5
:1043E0004FF0804387B0D3F81CA5D3F81C25AAF161
:1043F000B106D6F1000848EB0608B12A26D0D3F85A
:104400001C45A4F1A8056C426C41A84DA84EA94FCB
:1044100004F001032B704FF08043D3F81C9574B95E
:10442000B9F14E0F0BD0D3F81C25572A07D03268AC
:104430001268BA420CD1D3F80034D8070BD54FF02C
:1044400080430022C3F81C25012404E00124DCE79A
:1044500099498A42EFD0994B40F20D22C3F840258A
:10446000974B1B68B3F5742F02D0002003F0C4F8FB
:1044700000F046FA00F046FE002000F0D5FA00F009
:10448000B5FE78B1052000F0CFFA00F0C1FE08B10A
:1044900003F0B2F800F0E2FE08B103F0ADF8062038
:1044A00000F0C2FA1CB9042000F07EF904462B7813
:1044B000002B00F0D78001232B7043F2080318680B
:1044C00000F068FD834604B918B933681B68BB4225
:1044D0000DD13268784B11687648B9420CBF1F463F
:1044E0000746784B1760784843F0010398473368D4
:1044F00000221A601CB9BBF1000F40F092802C78AA
:10450000002C00F0C580BAF1B10F01D0FFF746FFD3
:104510004FF47420FFF728FF08B103F06DF86B4BE0
:104520006B491868019001A8FFF71AFF08B103F062
:1045300063F8684991F816335A09EC231341DA07F6
:1045400008D5654B9A68002A00F09E801A6842F4EC
:1045500080021A600C22614B029300210DEB0200D5
:10456000FFF7E0FE40F20113029A039303A94020F3
:10457000FFF700FF08B103F03FF80C2200210DEB1C
:104580000200FFF7CFFE9DF80C30029A43F00103C2
:1045900003A9A0208DF80C30FFF7ECFE08B103F062
:1045A0002BF80C2200210DEB0200FFF7BBFE0123CC
:1045B0008DF80C30029AF72303A92320ADF80E30B2
:1045C000FFF7D8FE08B103F017F80C2200210DEB1D
:1045D0000200FFF7A7FE01238DF80C308DF80E3096
:1045E000029A062303A92020ADF81030FFF7C2FE7F
:1045F00008B103F001F802A8FFF7BAFE08B102F013
:10460000FBFF082000F010FAA0460021287800F0F7
:1046100091FD08B102F0F0FF2B78002B42D0FFF79C
:10462000A1FE042000F0C0F828B9062000F0BCF874
:1046300008B1FFF7C0FE00F065FA43F208031868FE
:1046400000F0A8FC60B100F0D1FD48B9B8F1000F4E
:1046500001D1FFF7A3FE43F20803186800F09EFDA6
:10466000FFF76AFE042000F09FF830B93368124A61
:104670001B68991A4B424B411EE7062000F094F844
:1046800000287FF418AFF1E74FF480030B6061E777
:10469000022000F0C9F9A9F14E035842584103F035
:1046A00055FCB2E703F0BEFCBBE700BF7181002000
:1046B00064800020D51A5A00EEFFC00000A0004020
:1046C0001410001070AC0F000048E80160AC0F003F
:1046D0007D430F0000E100E0CCD9002000800020E5
:1046E00010B5FEB04FF4FA730DF1020101A8ADF858
:1046F0000230FFF741FE044640B9BDF80430102BEC
:1047000007D0112B0CD001A801F030F820467EB064
:1047100010BD054B01221A70072000F085F9F2E761
:10472000014B18700820F8E77081002013B501A82C
:10473000FFF714FE044660B9019801F047FF019BA2
:104740000A2B09D0092B09D00B2B02D1012004F030
:104750007DFA204602B010BD2046F8E70220F6E7B9
:1047600008B5FFF7BDFF0528FBD1FFF7DFFF0528E0
:10477000F7D108BD0021024A084602F0A5BE00BFDD
:1047800061470F001F2884BF00F01F00044B054A3B
:1047900098BF4FF0A04300F5E07043F82020704729
:1047A000000300500C0003001F288ABF064B4FF087
:1047B000A04300F01F00D3F8103523FA00F0C043E7
:1047C00000F00100704700BF0003005000234FF0CD
:1047D000FF328360C0F80035C0F86025C0F864255A
:1047E000C0F86825C0F86C2540F2FF32C0F80435E7
:1047F000C0F80825C0F80C35C0F81035C0F81435DD
:10480000C0F82035C0F82435704700000148FFF794
:10481000DDBF00BF00C00140074B23F81010074B5D
:1048200000221A6082B01B680193019B044B012295
:104830001A6002B0704700BF6883002010C10140B9
:1048400008C0014010B5164B1C68164B1B68B4FB22
:10485000F3F1580803FB1142824288BF9A1A4F2194
:104860005143B1FBF0F1C1F1FF0189B20020FFF724
:10487000D3FF0D4B1A68B4FBF2F1500802FB114351
:10488000834288BFD31A8F215943B1FBF0F1C1F1A4
:10489000FF0189B20120BDE81040FFF7BDBF00BF96
:1048A00064830020A4830020AC830020024A1368A4
:1048B00001331360FFF7C6BF648300200F4B002253
:1048C0001421C3F80C25C3F80425C3F80815C3F850
:1048D0001425C3F81025C3F82825C3F82C252F224A
:1048E000C3F860254FF0FF32C3F86425C3F868258C
:1048F000C3F86C250122C3F8002570470010024060
:1049000008B54FF0804301220021DA600420C3F88B
:1049100018159A60FFF736FF0620FFF733FF144B98
:104920004FF4C85043F001039847FFF7C7FF114AFF
:104930001E21082002F0A4FD08B102F05DFE02F085
:1049400007FD0D490D4BE02081F823001B684FF453
:104950007A72B3FBF2F3013BB3F1807F07D2084ACE
:104960005360002381F8230093600723136008BD80
:1049700080AC0F007481002000ED00E03081002049
:1049800010E000E0F0B585B043788DF8043083780E
:104990008DF80530214903788DF8063001AD0822E5
:1049A00048F20D0648F20607A2F1080315F801CBFC
:1049B0009BB280241CEA040F14BF3046384621F80D
:1049C0001300581C80B290424FEA540424D108329C
:1049D00092B2202AE8D102339BB24FF400420A86F9
:1049E00021F813200E4B1A22C3F82015C3F82425F2
:1049F00003F5887300221A601A680292029A094A23
:104A0000012111601A68002AFCD000221A601B687C
:104A10000393039B05B0F0BD0346CBE770830020F2
:104A2000001002400810024037B5234C00222568D0
:104A30000095019208281AD8DFE800F00C050C193F
:104A4000191308292D004FF47F4300931B4B40F6A8
:104A5000B8320BE04FF47F030093184B4FF496727B
:104A600004E04FF47F030193144B64221A60009B0F
:104A70001349019A0B40009392B10A40114B0192E5
:104A800001221A7001A8FFF77DFF03B030BDFF239C
:104A900000930D4BDBE74FF0FF1300930A4BDDE76C
:104AA0009D4202D023606846EDE7064B1B78002B41
:104AB000EBD00148E7E700BFA8830020A4830020D3
:104AC00010101000B0830020AC83002013B50B4CF5
:104AD0000023ADF804308DF8063044F001044FF4A3
:104AE0004860A04701A8FFF74DFF4FF44860A0477A
:104AF0000348FFF76BFE02B010BD00BF80AC0F0093
:104B00000010024008B50E4B00221A60FFF77EFE2F
:104B1000FFF7DCFF0B4B4FF40032C3F8802003F1AA
:104B2000C04303F53C534FF48032C3F84823C3F825
:104B3000082301225A609A604FF08043DA6008BD72
:104B400010E000E000E100E038B50C4C21684B1C9F
:104B5000054612D04FF48052094805F0D1FB48B108
:104B600015B1206800F070F94FF4806204492068A4
:104B700000F082F94FF0FF33236038BD68800020D9
:104B8000B48300202DE9F0410F4E904620F47F645D
:104B9000326824F00F04A24205460F4609D0184699
:104BA000FFF7D2FF4FF4805221460848346005F0E9
:104BB000B5FB0648C5F30B05424639462844BDE817
:104BC000F04105F0ABBB00BF68800020B48300203B
:104BD00038B50C46F8B90968D9B1104A9142154662
:104BE0000CD0531A3B2B12D93C22284605F096FBD9
:104BF00004E0C85CD05413F1FF33FAD200223C2108
:104C0000064802F041FD0023A887236038BD3D23FC
:104C1000F1E70E23F9E70123F7E700BF807F0020CB
:104C20006FF00203064A9E4502D1EFF3098101E0CD
:104C3000EFF308818869A0F102000078104700BFF7
:104C4000D14B0F0038B50546A8B10D4C00223C21D0
:104C5000204602F019FDA38F83420ED1224604F1B3
:104C60003C0152F8040B45F8040B8A42F9D1013398
:104C7000A387002038BD0E20FCE70B20FAE700BF19
:104C8000807F00200B2970B50446154630D9038972
:104C9000053300EB43030144CA1AD2B2012A27D9D3
:104CA0008B4225D81946134805F038FB2388522B30
:104CB00006D1AB0711D062884CF668639A420CD0DB
:104CC0000F2014E034F8022B824204D02E88964242
:104CD00003F1010308D1002009E0218900230A34EF
:104CE0004FF6FE7043F20C059942EBD80B2070BDD5
:104CF0000920FCE7B493002008B5002202F0C4FCB0
:104D0000044A5178137843EA0123984214BF0B20D8
:104D1000002008BDB493002000F180431A68002AE7
:104D20001BBF0022012000201A6070470F4B1A7829
:104D3000D2B902784FF08041C2F34002C1F8802519
:104D4000027802F00102C1F87825094A1168C90702
:104D500006D4E02182F800130121C2F8801111600D
:104D600001221A700348704703487047C8D90020D1
:104D700000E100E00000AD0B0C00AD0B014B026840
:104D80001A607047C89300204FF080434FF4607260
:104D9000C3F804237047000010B54FF08043D3F8E8
:104DA0000443620707D54FF48470FFF7B5FF10B1D5
:104DB0001E4B1B689847A30608D54FF48A70FFF76F
:104DC000ABFF18B11A4B00201B689847600608D546
:104DD0004FF48C70FFF7A0FF18B1154B01201B6832
:104DE0009847210608D54FF48E70FFF795FF18B14C
:104DF000104B00201B689847E20508D54FF49070CF
:104E0000FFF78AFF18B10B4B01201B689847A305D9
:104E10000AD54FF49270FFF77FFF28B1054B0220AF
:104E20001B68BDE81040184710BD00BFC0930020AC
:104E3000C4930020C8930020024AD2F80034002B0B
:104E4000FBD0704700E001400A4908B50223C1F8D1
:104E50000435BFF36F8FBFF34F8FC1F80805FFF71D
:104E6000EBFF0023C1F80435BFF36F8FBFF34F8F03
:104E700008BD00BF00E001400E4B10B50124C3F88F
:104E80000445BFF36F8FBFF34F8F01EB8204401ACD
:104E9000A14208D1074B0022C3F80425BFF36F8F4E
:104EA000BFF34F8F10BD431851F8042B1A60FFF762
:104EB000C3FFEDE700E0014011DF704713DF7047EB
:104EC000064B1878012803D1012904BF022119706B
:104ED00012B1104602F090BB704700BFF89300205B
:104EE00070B5124C124D134ED4F800347BB1C4F897
:104EF0000056C4F80456C4F80856C4F80C56C4F852
:104F00001056C4F81456C4F81856C4F81C5602F0CB
:104F100041FB05F04FF820B104F060F8002004F0E8
:104F20007BFB3378023B022BDED870BD00000140D2
:104F30003546526EF893002008B5FFF729FA88B17C
:104F40001C21114801F0DCFB08B102F055FB0023E5
:104F50001C220E490C4801F0C3FB98B1BDE8084083
:104F600002F04ABB4FF47F20FFF76EFF072207498C
:104F70004FF47F20FFF780FF054B1A78012A04BF0A
:104F800002221A7008BD00BFF0930020FC9300209D
:104F9000F893002007B50368013303D1002003B064
:104FA0005DF804FB01A800F087F9019B1A88012A2B
:104FB000F4D1588830B1996843F208030022186888
:104FC00002F062FB019B5B881B1A58425841E6E7DE
:104FD00084B02DE9F34108AC84E80F009DF820402F
:104FE000BDF822800B9D01A8DDE9097600F064F987
:104FF00054B9384B0122FF21A3F802809D601A802A
:105000009980354B1A7012E0012C17D1314BBA1927
:105010002A449A60A5221A80FF229A800C9AA3F84B
:105020000280C3E903765D619A612B4B1C70FFF728
:1050300083FF02B0BDE8F04104B07047032C0FD1EC
:10504000019A244B11881980518892689A60C3E9AB
:105050000376AA2259809A805D611F4B0122D1E715
:10506000022C15D1019A1B4B1188A5290AD10022C7
:105070009A60FF221A60FF229A800022C3E903226D
:105080005A61EAE719805188926859809A60F2E77C
:10509000052C0ED1FFF77CF940B100F041FD08B1BD
:1050A00002F0AAFA0C4B03221A70C2E700F0FAF9D8
:1050B000F5E7042C08D1074B00229A60FF221A6002
:1050C000019A92889A80B2E7062CB2D1024B042250
:1050D000EAE700BFFC930020F893002000B5084BDE
:1050E0001B7889B043B905238DF80C30079B0093DA
:1050F00003AB0FCBFFF76CFF09B05DF804FB00BFFB
:10510000EC9300201FB50023CDE90233074B019338
:1051100001F0B0FA30B906494FF47F2301A84B6083
:1051200001F0CAFA05B05DF804FB00BFC14E0F00E4
:10513000F093002070B505460E4600F07FFF044650
:1051400028B935B100F048FC0446FFF7C9FE2046F7
:1051500070BDBEB10D4B0E4A0E481D70294602F0BF
:1051600027F94FF400444FF4FA7000214FF47A729B
:105170000023E4FB060104F041FF2A4601460648ED
:1051800002F028F900F06AF9DEE700BFEC93002096
:10519000DD500F0088AC0F00CC93002038B5FFF72E
:1051A0008BFE08B102F028FA0F490D680023012494
:1051B00004FA03F22A4207D05A0903F01F002032F2
:1051C00004FA00F041F822000133302BF0D143F211
:1051D00008042068FFF772FE08B102F00DFA20689B
:1051E000BDE8384000F08CB800E100E007B501A848
:1051F00000F062F8019B1A88A52A07D09888A0F1D0
:10520000AA035842584103B05DF804FB0120FAE7B5
:1052100010B501F035F9A8B10E4B0F4843F001036A
:10522000984701F0ADF808B102F0E6F901F028F96D
:1052300008B102F0E1F901F0EBF8044638B102F0F0
:10524000DBF904E001F0FEF804460028E4D1204632
:1052500010BD00BF90AC0F0000A8610000B589B080
:1052600003AB142200211846FFF75CF802228DF8E8
:105270000C20002200920FC8FFF7AAFEFFF730FEB5
:10528000002009B05DF804FB13B5044601A800F046
:1052900013F8019B1A8822805A8862809A68A2605B
:1052A0009A88A280DA68E2601A6922615A696261AA
:1052B0009B69A36102B010BD014B0360704700BF42
:1052C00000F00F00F0B50346186880F308885868AE
:1052D000FF2464B2EFF30585002D01D1A6460047F7
:1052E0002546064621273FBAF0B4002400250026B3
:1052F0000027F0B4F92040B2004700BFF0BD00BF66
:10530000FFF7E0BF73B500230DF1020101A8ADF86E
:105310000230019302F0EEFDF8B9019C25785DB3EF
:10532000174B93F83020032A28D00C2606FB00F2F6
:105330009958E9B998189D5093F830200132D2B2AB
:1053400083F83020BDF802300E4A9B08013B04343C
:1053500043608460084602F0B7F8019B33B128B17E
:10536000184602F0E3FD08B102F046F902B070BD44
:1053700001300428DAD1F0E70720EEE70420ECE75B
:1053800018940020CD530F0010B50C230B4A434353
:10539000D418D15881B192F83010A0680139C9B23F
:1053A00082F830100021D150C4E90111043802F014
:1053B000BDFD08B102F020F9002010BD18940020B6
:1053C00011B1084602F018B970470000214B70B5C2
:1053D0000122214E1A7096F8303003B970BD1E4C70
:1053E0000025236883B1013B042B07D8DFE803F0D5
:1053F0001C0612032800204600F0C0FEE8B2FFF7AA
:10540000C3FF08B102F0F8F80135042D04F10C04D3
:10541000E7D1E0E7A3686360204600F059FE00286A
:10542000ECD002F0E9F8E9E7204600F02FFF00F0A9
:105430000BFF08B102F0E0F80520FFF7F5FADDE711
:1054400000F054FF00F076FF0620BDE87040FFF743
:10545000EBBA00BFEC9300201894002008B50E4B67
:10546000002283F8302011460132042A1960C3E972
:10547000011103F10C03F7D1084800F023FE02F0FC
:10548000D1FC08B102F0B8F8054802F0B7FC08B149
:1054900002F0B2F8002008BD18940020C1530F009C
:1054A00005530F0008B50020FFF76EFF0120FFF73E
:1054B0006BFF0220FFF768FF0320FFF765FFBDE8E1
:1054C000084002F0F7BC006870476CDF70476DDF82
:1054D00070476EDF70476FDF704772DF704773DFB2
:1054E000704774DF704776DF704777DF70477ADF89
:1054F00070477CDF70477FDF704786DF70478FDF44
:10550000704790DF7047AFDF7047B0DF7047B1DFA3
:105510007047B2DF7047B5DF704764DF704766DF02
:1055200070470C2813D8DFE800F014121212121280
:1055300009120712120D0B0002207047032070475A
:1055400004207047042914BF062005207047062058
:1055500070470120704702F04FB810B50446084666
:105560000321FFF7DEFF03210246204601F05EFA29
:1055700018B1BDE8104002F03FB810BD032810B5C7
:105580000B46144620D0042825D169B1124B188847
:105590004FF6FF7398421ED01321FFF7A4FFD0B13E
:1055A000BDE8104002F028B8104602F0C9F808B172
:1055B00002F022F8094B1B689C420CD10122032106
:1055C000074801F033FAEAE701211846FFF7A9FF7F
:1055D00001210246F4E710BD6E8000200C950020EA
:1055E000BC940020F8B50A4CA3889E181D2E1546C1
:1055F0000DDC2768FE1802F1010C07F803C070707B
:10560000B01C04F08BFEA28802322A44A280F8BDAE
:105610006C940020F0B54A4D2C7893B0002C40F0EB
:105620008A80484E102221463046FEF77BFE464BCC
:105630003360182221460CA8FEF774FE28230E932F
:10564000424B1B7801278DF8307006AE002B74D0CA
:1056500021463F4C102202A8FEF764FE102202A948
:10566000E01D04F04DFE002867D03A48394604603A
:10567000FFF72FFF08B101F0BFFF374B374603F1AB
:10568000100C186859683A4603C208336345174638
:10569000F7D12068A2880A903048A379ADF82C2071
:1056A000002101228DF82E300660FFF714FF08B1AB
:1056B00001F0A2FF03238DF8443004238DF8063057
:1056C00041F23053ADF80830254B32469B798DF8C6
:1056D0000A300DF1070102A8FFF71FFF0122104653
:1056E0000DF10601FFF77EFF1E4804F05FFE1D4925
:1056F000C2B20920FFF776FF102231460620FFF7DD
:1057000071FF0CAA0F491848FFF7E7FE08B101F036
:1057100073FF154C042221780120FFF7E6FE08B143
:1057200001F06AFF01212078FFF7D9FE08B101F0EE
:1057300063FF01232B7013B0F0BD0623BEE700BF4B
:10574000F09400206C9400204C940020B894002029
:105750007C9400200895002083940020EC94002085
:10576000BC94002096AC0F006C800020F0B504467D
:105770000146B1B08E4801F08DF92388212B00F04D
:10578000048142D8112B00F09C8007D8012B00F037
:10579000BE80102B00F08E8031B0F0BD142B00F0D5
:1057A000D4801A2B5BD0132BF6D1824B03AC9A79A1
:1057B000186899888DF822200790DA1DADF820101E
:1057C0001733264610685168254603C508329A42A9
:1057D0002C46F7D1784B09AA03F11807154618682B
:1057E0005968144603C40833BB422246F7D11868EF
:1057F00020607248724A008810AB8521CDE91456AA
:10580000FFF779FE0028C7D0B5E0512B00F0858066
:105810001ED8232B00F0B280262BBDD1237A012B7A
:10582000BAD1684B00221A70674B196801391960A8
:10583000002969D110AB14221846FEF773FD05222A
:105840008DF84020149A00920FC8FFF7C1FBA3E720
:10585000552B00F0A380562B4CD0522B9CD1574B8C
:105860001C884FF6FF75AC4200F08480574B1B78C4
:10587000002B79D00123082255492046FFF747FE27
:10588000002878D10246014602232046FFF73FFE5A
:10589000002870D12A460C212046FFF734FE43F23F
:1058A000020398423FF478AF08283FF475AF1128FF
:1058B000A8D171E7414BA2881A80424B00221A708E
:1058C0006AE78023ADF824303C4C3F4B20883222DD
:1058D0001A6010A9012309AAFFF71BFE08B101F005
:1058E0008BFE3C4B1B780BB9FFF794FE4FF6FF7312
:1058F000238051E7A379002B7FF44EAF2F4B132168
:105900001888FFF7F0FD7DE7FFF784FE44E72B4B97
:1059100000211888FFF703FE74E7A379002B3FF4FA
:105920003BAFA27B043A022A3FF636AF022B18BFE8
:1059300001238DF840304FF4C173ADF844301F4B54
:1059400010A91888FFF7E1FD5CE71A4A258A518DF6
:1059500002F1180000238D420CBF014619460732A0
:10596000A088FFF7CAFD4DE71A4619462046FFF703
:10597000CEFD47E7082001F03FFE0DE70F4B002268
:1059800011461888FFF7BDFD3CE70023ADF8403015
:105990000A4B10A91888FFF7B2FDFDE6E188074B16
:1059A000F72928BFF7211888FFF7B5FD2AE700BFC0
:1059B000BC9400207C940020949400206E800020F1
:1059C000FE940020F094002070800020B894002005
:1059D000B09400200395002030B5434A434800238B
:1059E0001370434A95B0137000F06CFB01F068FE31
:1059F0000446002861D13F48FFF724F900285FD111
:105A00003D4B01221A7011233C488DF8043004F0FC
:105A1000CDFC3A4982B201A8FFF76BFD08B101F055
:105A2000EBFD0822002104A8FEF77CFC344A4FF06D
:105A3000C87304A8CDE90423FFF759FD08B101F0AC
:105A4000DBFD00210C2201A8FEF76CFC0823ADF859
:105A500004302C4B029301A92B4B2C48039300F0EC
:105A600067FE08B101F0C8FD294D4022002104A8BD
:105A7000FEF758FC284604F099FC0595254DADF835
:105A80001000284604F092FC0795234DADF818004D
:105A9000284604F08BFC1123ADF8300004A8ADF8C3
:105AA0004C300D9501F00CF91C4B30221A70072276
:105AB0005A7010229A70FFF7ADFD204615B030BD28
:105AC00004A8FFF704FD08B101F096FD9DF8113020
:105AD00004A801338DF81130FFF7F7FC002892D0AD
:105AE00001F08AFD8FE700BF039500207D550F0070
:105AF000FD9400207C940020B894002096AC0F0008
:105B000008001800715B0F0057550F00BC9400206F
:105B10009DAC0F00A6AC0F00AFAC0F00FE940020B0
:105B200010B50F4B01221A700E4B18884FF6FF73F9
:105B3000984207D01321FFF7D6FC08B101F05CFDB5
:105B4000002010BD084C2278002AF9D0074B1878A5
:105B5000FFF7C7FC08B101F04FFD00232370EFE70A
:105B6000039500206E800020F09400206C800020BF
:105B7000F0B50B7889B005460C46092B23D8DFE831
:105B800013F02B00330042000A0018002400FE002E
:105B9000070145000C0100F0A9FB0421FFF7C1FC3F
:105BA00004210246284600F041FF60B101F024FDC7
:105BB00009E0FFF7B5FF08B101F01EFD00F0BAFBE8
:105BC00008B100F0CFFB09B0F0BDFFF7A9FF002836
:105BD000F7D001F011FDF4E7724B01221A704B6807
:105BE0001A78714B1A70EEE76E4B02261E704B68E6
:105BF0001B78012BE7D100F027FB3146FFF791FC22
:105C000002463146CEE7674B0322EBE70520FEF75D
:105C10000BFF644B1E78022E2AD0032E4FD0012E8C
:105C2000D1D104AB102218460021FEF77BFB5E4A5F
:105C3000237A12788DF81020002203920C2B4FF05B
:105C40000302CDE90120DCD163681846FFF73BFC75
:105C50000590181DFFF737FC069003F10800FFF7C9
:105C600032FC079001A800F033FA0028ABD0C4E75B
:105C7000237A13F0030010D0C0F104021A44D2B208
:105C800019464FF0000C67684E1C07F801C0F1B2CE
:105C90009142F8D11B1A04332372012304936368E1
:105CA0000693237A04A89B08059300F0EFFA0028D6
:105CB00089D00221FFF735FC0221024672E7207AE3
:105CC000830702D0324631466CE7384E01903146A8
:105CD00001F00CFD014618B12846FFF73EFC72E7C3
:105CE0006168019A306804F019FB019801F064FDC5
:105CF00001460028F0D101A9304601F06DFD0146B2
:105D00000028E9D104230493019B9B08059304A870
:105D10003368069300F032FA074640B9244A237AE2
:105D200011680B441360234B32681A604BE7092853
:105D30001BD11F4B217A1A68114419601E4B1B7826
:105D4000002B3FF440AF1D4C2388013B9BB22380C6
:105D5000002B7FF438AF284600F02EFE08B101F08A
:105D60004BFC174B1B8823802DE7306801F0E8FCC3
:105D7000014610B12846FFF7F0FB3946ACE70E4B61
:105D800001221A700E4A8B8813800C4A13801AE77E
:105D9000094A002313700A4AF8E7054B196800F016
:105DA000CFFD02E7FD94002004950020109500200F
:105DB000F49400200C950020FC940020FA9400201C
:105DC000F894002018DF70470129F8B50D461446F5
:105DD0001F4607D0032912D014B32046BDE8F8406F
:105DE00001F00ABC0F4B1B78052BF5D10E4B1B683D
:105DF000002BF1D03A46214604209847ECE7094EA3
:105E00003378022BE8D1094B5B689847064B357015
:105E10001E68002EE0D03A4621462846B047DBE710
:105E2000F8BD00BF1C95002014950020409500206F
:105E300000B5084B89B001221A7005238DF80C308B
:105E4000079B009303AB0FCBFFF7C2F809B05DF8D7
:105E500004FB00BF1D95002000B589B003238DF819
:105E60000C300A4B1B88ADF80E30094B5A6804926F
:105E70009A68DB680693079B0093059203AB0FCBF0
:105E8000FFF7A6F8002009B05DF804FB4C95002050
:105E90009895002000B589B001238DF80C300B4B8C
:105EA0001B88ADF80E3043F208031A68084B596896
:105EB00004919968DB6806930591009203AB0FCBC0
:105EC000FFF786F8002009B05DF804FB4C95002030
:105ED0009895002000B589B003AB14220021184624
:105EE000FEF720FA04228DF80C20002200920FC841
:105EF000FFF76EF809B05DF804FB000030B589B01B
:105F000003AC142200212046FEF70CFA094B1B8833
:105F1000ADF80E30084BDB6806930025079B8DF823
:105F20000C50009394E80F00FFF752F8284609B090
:105F300030BD00BF4C95002098950020174B73B5DD
:105F4000174C1C60174B02221A70FEF721FA164BF1
:105F500048B11968204600F0D3FBB0B102B0BDE8EB
:105F6000704001F049BB1B681D0BC3F30B0303B169
:105F70000135002443F20806A54208D1002300930E
:105F80001A4603210648FFF71FFF02B070BD3068B4
:105F900000EB0430FEF758FF0134EDE7B095002028
:105FA000A89500201C9500205095002010B50B4BA3
:105FB0001B788BB90A4801F053FA08B101F01CFBB9
:105FC00000224FF41601064801F004FA044608B115
:105FD00001F012FB204610BD0824FBE71D950020B0
:105FE000209500207FB50C4603210546CDE9001021
:105FF0009608684602940396FFF7E4FED8B1B4F51C
:10600000805F11D801236846CDE90035CDE902460D
:10601000FFF7D8FE78B903236846CDE90035CDE90E
:106020000246FFF7CFFE06E01A46E11AE81AFFF72C
:10603000D9FF0028E6D004B070BD0000F0B585B0EF
:10604000174B0193174B184F184E00241C70184B18
:10605000394601A8CDE902441C8000F02DFB05461D
:1060600018B13470284605B0F0BD43F2080301466C
:106070001B68104A10487B6001F09AF908B101F0E2
:10608000BBFA00224FF416010C4801F0A3F908B145
:1060900001F0B2FA0A4B00221A6001233370E1E7E3
:1060A000C95D0F0094950020A89500201C95002044
:1060B0004C950020315E0F00D4AC0F0020950020DD
:1060C00018950020014B1860704700BF1495002000
:1060D00070B54368204C0FCB84E80F00227851073D
:1060E00001D5930731D163689E072ED1A1688D0732
:1060F0002BD1E068840728D10B44184E0344B1F536
:10610000304F336023D843F208010968C1F56D218F
:106110008B421CD8124D134B2B60D107124B6B6076
:106120000ED5124BAB60124B1B78012B11D1FFF730
:106130003DFF044610B92B6830689847204670BD73
:1061400093074CBF0B4B0C4BECE70624F6E70C24F3
:10615000F4E70824F2E700BF98950020509500204E
:10616000409500203D5F0F00D55E0F00955E0F004B
:106170001C950020595E0F00FD5E0F002DE9F347CE
:106180008046002850D083689B074FD12A4B1B784C
:10619000052B4DD1294F4568294E3B683268AD002B
:1061A0002B449342B94607D94FF0FF333B600C2490
:1061B000204602B0BDE8F087FFF7F8FE044600284D
:1061C000F6D1D8F80880DFF87CA0FEF7E1F848B1F6
:1061D0003B68DAF800002A46414600F081FAA0B197
:1061E0000446E5E743F20803D9F800001F682A4691
:1061F000234641463844FEF7C5FC009543462246F7
:106200000121DAF80000FFF7DFFDD9F800301D4466
:106210003368C9F800509D420CD1FEF7B9F8002848
:10622000C6D1FEF791FCC3E70E24C1E71024BFE7F7
:106230000824BDE70924BBE71C9500201895002021
:1062400050950020B095002070B50B4B1D6885B9A6
:106250000A4E3378042B0CD1094C0A4B21781A785A
:106260000948FEF70FFD10B90523337070BD257086
:10627000FCE70820FAE700BF189500201C950020D5
:10628000949500209895002054950020F8B5134B64
:106290001A78032A074603D0042A03D0082419E0F9
:1062A00004221A700E4B1B68002BF7D1FFF77EFEFD
:1062B000044678B90B4E7D683378AD005A19402AF0
:1062C0000AD80948B9682A46184404F027F83378F0
:1062D0001D4435702046F8BD0924FBE71C950020BD
:1062E00018950020949500205495002038B50D4C49
:1062F0002378052B14D10C4B0C4D1A682B689A424D
:106300000ED106232370FFF751FE40B9084B2968D0
:106310001B685868FEF7F0FC08B90723237038BDE6
:106320000820FCE71C9500201895002050950020BF
:10633000B095002010B5084B1B78072B0AD10748F1
:1063400001F08EF808B101F057F9054BBDE8104097
:106350009B681847082010BD1C9500202095002040
:106360004095002000B589B006238DF80C30079BBE
:10637000009303AB0FCBFEF72BFE09B05DF804FBD7
:1063800010B58CB005A8FEF77FFF089A002A3BD015
:106390000B9C02F58053A3422AD91C49A4F58053D3
:1063A00001EA530343F2080109688A4208D85800F9
:1063B000121A00F580512044FFF714FE0CB010BDF6
:1063C00003F580500121CDE90110CDE9030101A8B9
:1063D000FFF7F8FC0028F1D14FF48050CDE902001E
:1063E00001A801910491FFF7EDFC0028E6D1DEE75A
:1063F0000123CDE9013492084FF4805301A803939F
:106400000492FFF7DFFCD9E71046D7E700F0FFFF63
:1064100000B58DB005A8FEF737FF099860B1089B5D
:106420006BB943F208031B6880080022039001A89F
:10643000CDE90123FFF7C6FC0DB05DF804FB0B9A14
:106440001344F1E700B58DB005A8FEF71DFF0998CC
:1064500078B1089B83B943F208031B680393800853
:1064600003214FF47422049001A8CDE90112FFF733
:10647000A9FC0DB05DF804FB0B9A1344EEE7000095
:1064800030B58DB005A8FEF7FFFE0898A8B10B9CAB
:1064900000F58053A34212D943F208031B689842C7
:1064A00019D80E4BA4F5805203EA52035D00421B3B
:1064B00005F580516019FFF795FD0DB030BD8008DE
:1064C00003224FF48053049001A8CDE901230394E3
:1064D000FFF778FCF1E70E20EFE700BF00F0FFFFC9
:1064E00029DF704728DF704737B54B68CA680093CB
:1064F0000C46054B53F822504B6914F80C1B02460E
:106500002046A84703B030BDB495002038B5184CDC
:106510002378182202FB03431A795D69012A03D00C
:10652000032A19D00F2038BD124A996910689A6859
:10653000DB680003121AB2F5805F1D44014438BFC6
:106540009208284428BF4FF48062FFF7C9FF002853
:10655000E9D10123A370E6E74FF080531869054B9A
:1065600080B2B5FBF0F518682844FFF7BBFFEEE7F3
:10657000C4950020BC96002070B5134D6C780A2C91
:106580001FD02E783444E4B2092C84BF0A3CE4B214
:10659000182606FB0454A261207103C9A360049B62
:1065A000E360AB7804F1100282E8030023B100201D
:1065B0006B7801336B7070BDFFF7A8FF1128F7D11E
:1065C000F5E70420F7E700BFC4950020F8B5274998
:1065D0008B780C462BB1002602288E7002D003283F
:1065E0003AD0F8BD0D78224A182101FB0541136805
:1065F00089680133B1EB033F13601BD863781660E1
:10660000013B63706B1CDBB218270426092B17FBB8
:10661000056188BFA5F10903214400202370FFF71D
:1066200063FF07FB05430022C3E904621A719A6005
:106630009A61DA606378002BD3D0A378002BD0D195
:10664000FFF764FF0028CCD01128CAD02178182386
:1066500003FB0141043105E00B78182202FB031112
:1066600004310D20BDE8F840FFF73EBFC49500207F
:10667000BC9600200C4B00221A600C4B0A201A809A
:106680009A70042101381A719A60C3E904129A6160
:10669000DA6003F11803F5D1054B1860054BC3E927
:1066A0000000C3E902007047BC960020C49500209A
:1066B000B8960020B4950020074A1368042B1FBF2A
:1066C0000B60591C1160054A1DBF016842F8231078
:1066D00000201846704700BFB8960020B4950020EF
:1066E00013B5CC180C43A40708D1009313460A46EF
:1066F00001460120FFF740FF02B010BD1020FBE76C
:1067000007B500220B46009201460320FFF734FF35
:1067100003B05DF804FBA8DF7047AADF7047ADDF68
:106720007047AEDF7047B0DF704762DF7047000030
:106730002DE9F0470F4694B00546002800F0F98097
:10674000002900F0F6804B68002B00F0F2804FF635
:10675000FF730380784B04AA03F1100C16461868E7
:106760005968144603C4083363452246F7D141F201
:1067700030530DF10A013046ADF80830FFF7D5FF70
:106780000446002840F0D1802A1D02A90120FFF70D
:10679000C2FF0446002840F0C8809DF80A30AB7163
:1067A00001461C220DA8FDF7BDFD9DF834300E9466
:1067B00043F004038DF8343001AEAB798DF80E3020
:1067C000214641F2325303223046CDE91044CDE94F
:1067D0001244ADF80C30FDF7A5FD9DF8063023F00E
:1067E0001F0343F00303214614224FF4885A08A8DC
:1067F0008DF80630ADF804A00DF10C08FDF792FD00
:106800004FF0140905F1080308AA0DA9A8880A94F5
:106810000C94CDE90886ADF82C90FFF77EFF044676
:10682000002840F0828001461C220DA8FDF77AFD69
:106830009DF834300E9423F0180343F018038DF8BC
:106840003430AB798DF80E30214641F231530322BA
:106850003046CDE91044CDE91244ADF80C30FDF7D7
:1068600061FD9DF80630ADF804A023F01F0343F04E
:10687000130321464A4608A88DF80630FDF752FD5D
:106880001723ADF82C3008AA05F110030DA9A8882C
:106890000A940C94CDE90886FFF73FFF04460028D0
:1068A00043D101461C220DA8FDF73CFD9DF8343074
:1068B0000E9443F002038DF83430AB798DF80E302E
:1068C000214641F2345303223046CDE91044CDE94C
:1068D0001244ADF80C30FDF725FD1123ADF804305E
:1068E0009DF8063023F01F0343F0030321464A4678
:1068F00008A88DF80630FDF715FD02230A93ADF8C0
:106900002C3008AA05F120030DA9A8880C97CDE921
:106910000886FFF702FF044638B97B68AB62BB68A4
:1069200003B1EB62054B01221A70204614B0BDE89A
:10693000F0870E24F9E700BFD8AC0F00C096002006
:1069400070B5054686B070B302884FF6FF739A4261
:106950002BD0174B1B7843B3164C1022080AE1705A
:10696000207121FA02F0090E072301266071A1713E
:1069700002A800216370ADF806302270A670FDF702
:10698000D1FC2B8AADF808300023ADF80C3002A9F9
:106990000DF1060328888DF80A60CDE90434FFF76D
:1069A000C0FE06B070BD0E20FBE70820F9E700BF6F
:1069B000C0960020C196002030B5054687B060B370
:1069C00002884FF6FF739A4229D0164B1B7833B3D7
:1069D000154C112323700B0A6170A3700B0C090E68
:1069E000E370217105230021102202A8ADF80630C2
:1069F000FDF798FC2B8AADF8083001238DF80A309A
:106A00000023ADF80C3002A90DF106032888CDE96A
:106A10000434FFF786FE07B030BD0E20FBE70820E8
:106A2000F9E700BFC0960020C196002030B50446AB
:106A300087B038B300884FF6FF73984224D0134BC9
:106A40001B780BB3124D102369700321ADF80610AB
:106A5000AA7000211A4602A82B70FDF763FC238A56
:106A6000ADF8083001238DF80A300023ADF80C3062
:106A700002A90DF106032088CDE90435FFF751FE88
:106A800007B030BD0E20FBE70820F9E7C0960020D4
:106A9000C196002070B50D4688B0044640B139B1AA
:106AA000826A2AB10B88112B59D003D8102B43D0FE
:106AB00008B070BD502B42D0512BF9D18B79022BED
:106AC000F6D10A89038A9A42F2D18B7B043B022BCE
:106AD000EED99DF8163043F001038DF816300B8A7D
:106AE000ADF818304B8AADF81A30022601F11403C4
:106AF0000822002101A807938DF81060FDF712FC11
:106B000001AAA18A20880196CDF808D0FFF707FED8
:106B1000034638B3E36A03B1984740F2FD1304A972
:106B20002088ADF81430FFF7FEFD0028C0D0E36ADE
:106B3000002BBDD09847BBE78B882380B8E7C98876
:106B400003899942B4D108238DF81030123535F8F5
:106B5000023C8DF81830059504A99047A8E74FF638
:106B6000FF73EAE79DF800202088D207D5D504A955
:106B7000ADF81430FFF7D7FD0028D8D1297D4B1E82
:106B8000072B41D8DFE803F0041A2327292B3E2DD9
:106B900000238DF804306B8A012B05D806220121D1
:106BA0002046FFF743FFC0E7012315358DF80C3071
:106BB0000295A36A01A92046984779E76A8A0123CA
:106BC0009A428DF80430F0D806220221E8E7022329
:106BD0008DF80430EDE70323FAE70423F8E70523F3
:106BE000F6E76B8A022B02D803220821D8E7AA7D98
:106BF0006B7D43EA0223002BADF808300CBF07235E
:106C00000623E5E70923E3E70322C9E7A8DF704786
:106C1000AADF70472DE9F04180468EB015461F4629
:106C20000E4611B9084600F0E7FC15B9284600F0F9
:106C3000E3FC1C220DEB02000021FDF773FB9DF825
:106C40001C30ADF80480002443F002038DF81C30A2
:106C500021460123032268468DF806300894CDE9C9
:106C60000A44CDE90C44FDF75DFB3B788DF800301C
:106C70007B788DF801309DF8023023F01F0343F03C
:106C800002032146142202A88DF80230FDF74AFBC8
:106C90000A48CDF80CD001AB029302AA149B0088DD
:106CA000ADF8105007A9ADF81240ADF81450069693
:106CB000FFF7AEFF0EB0BDE8F08100BF00970020E7
:106CC00030B587B041F60A0304465C4AADF80C3093
:106CD000012003A98DF80E00FFF798FF0546002854
:106CE00049D12288002A49D1228952B1544B0093BC
:106CF000E16804F13C0342F62420FFF78BFF0028F3
:106D000047D1228A52B14F4B0093616904F13C0391
:106D100042F62520FFF77EFF00283AD1228B52B1A0
:106D2000494B0093E16904F13C0342F62720FFF749
:106D300071FF00282DD1228C4AB1444B0093616A27
:106D400004F13C0342F62620FFF764FF08BB228DC6
:106D50004AB13F4B0093E16A04F13C0342F628201C
:106D6000FFF758FFA8B9236BABB9616B002938D185
:106D7000A36B002B42D1284607B030BD354B0093A2
:106D8000616804F13C0342F62920FFF743FF002825
:106D9000AAD00546EFE71A688DF810201A68120A83
:106DA0008DF811205A888DF81220DA788DF813208A
:106DB0005A688DF814209B688DF815301A0A1B0C40
:106DC0008DF81730244B8DF816200093082204F11B
:106DD0003C0304A942F62320FFF71CFF0028C4D07F
:106DE000D7E71E4B0A790093096804F13C0342F689
:106DF0002A20FFF70FFF0028BAD0CAE71A788DF8CB
:106E000010205A888DF81120120A8DF812209A88C5
:106E10008DF81320120A8DF81420DB888DF81530B8
:106E20001B0A8DF816300E4B0093072204F13C0329
:106E300004A942F65020FFF7EDFEAAE700970020D4
:106E4000E0960020F8960020D0960020C8960020FA
:106E500002970020D89600200A970020F096002084
:106E6000E8960020094A537891780133DBB29942C1
:106E700008BF0023117899421FBF03705078182370
:106E800003FB002014BF043000207047149700203B
:106E9000082910B5044602D0002000F0ADFBD4E96B
:106EA0000030BDE81040184773B5054600240DF1C9
:106EB00007000E468DF8074000F0ACFB0DF1060010
:106EC000FFF7D0FF90B10670094B9DF80620456092
:106ED0005A709DF8070000F0C1FB24B9054B4FF430
:106EE0008012C3F80021204602B070BD0424F0E7F0
:106EF0001497002000E100E0204B21491A682F235D
:106F000000BF00BF00BF00BF00BF00BF00BF00BF89
:106F10008A422FD000BF00BF00BF00BF00BF00BF2C
:106F200000BF00BF00BF00BF00BF00BF00BF00BF69
:106F300000BF00BF00BF00BF00BF00BF00BF00BF59
:106F400000BF00BF00BF00BF00BF00BF00BF00BF49
:106F500000BF00BF00BF00BF00BF00BF00BF00BF39
:106F600000BF00BF00BF00BF00BF00BF00BF00BF29
:106F700000BF00BF013BC3D1704700BF308100207C
:106F80000024F4000C4B0D484FF4003210B5C3F848
:106F9000802001244FF48033C0F84833C0F8083310
:106FA0004460FFF7A9FF064B846000201860FFF7DC
:106FB000A3FF044B187010BD00E100E00010014079
:106FC00030980020219800202DE9F3412549264BD7
:106FD0000025C1F84051C1F84451C1F84851C1F8E9
:106FE0004C51C1F80051C1F804511B68002B34D03A
:106FF000D1F804451D49DFF888800968641A24F037
:107000007F442F461A68A24212D8A41A15441A7C4B
:10701000DE6962B15A691F7400929B69019342460E
:107020000821684600F050FA08B100F0E5FABEB950
:107030000F4A104B11781B788B4205D10133DBB21C
:10704000022B08BF0023137012780B4B43F8225019
:107050000A4B4FF48012C3F8002102B0BDE8F08162
:107060003346CFE7001001403498002030980020CC
:107070002D9800202C9800202498002000E100E0AA
:10708000916E0F002DE9F04FA64AA74913780978B1
:10709000A64C994285B03CD00133DBB2022B08BF2D
:1070A00000231370A2491278A24B0F6853F82200F4
:1070B0003B1823F07F4300220B60236815461646D9
:1070C000944613B942B1236006E0196881420ED993
:1070D00002B12360091A1960012723680293DFF8BF
:1070E0005C9200230193BDB9DFF85CA268E0401A0E
:1070F0000E44D968C3F800C0D3F81CE031B1BA1906
:1071000022F07F42C3E90121DD611D460122734661
:10711000D7E700252F46E0E72846ED69844A436813
:107120001268DFF828E2D0F808C0991A21F07F41F0
:10713000714500F2A5806144016001220274226859
:107140000023C0E90133C361002A40F0A38020601E
:10715000C9E75A1C9AF80210D2B291428AF800206C
:1071600004BF00228AF80020182202FB03A31A7928
:107170009868022A1CD0032A12D0012A20D1027C4E
:10718000F2B9D96841601E6986605E69C6609B6914
:107190008361694B1B78002B18BF11464160BDE726
:1071A000002223681146002B66D14AB1236007E014
:1071B000226893469046BBF1000F57D10023037419
:1071C0009AF800309AF801209A42C2D1019A2368B5
:1071D00022B9029A9A4201D1002F41D0002B7BD0D4
:1071E000D3F80090554C524BD4F804651868544FAE
:1071F000351A3B7825F07F4503359BB94FF4803332
:10720000C4F84433C4F804334E4B4FF400324FF00B
:107210000108C3F880211A60C4F80080FFF76CFEF3
:1072200087F80080A9452CBF4844401920F07F40D2
:10723000C4F84005D4F804359B1B23F07F43801B22
:10724000033320F07F4083420AD9D4F80435C4F8D0
:107250004035FFF751FE3B4B4FF40032C3F800219D
:10726000354B00221A7005B0BDE8F08F584536D076
:10727000D846DBF81CB09EE719740122DB6992E75F
:10728000D31A23F07F43634534BFACEB03030023E1
:10729000036052E70168136899421BD8591A1160BC
:1072A000C26154E7A1EB0C01D3F81CC01A46BCF133
:1072B000000F0AD06346D3F800C08C45F2D3ACEB84
:1072C000010CC3F800C09C4613460160C0F81CC006
:1072D000D86108E71346EEE7FFF754FEC0E74045E4
:1072E0000FD1D169216061B9DFF844E00392012335
:1072F000C9F80830CEF800100F490B70FFF7FCFDFD
:10730000039ADBF81C10DBF80030C8F81C1011B130
:107310000E6833440B60019923689A4218BF01211B
:1073200001914BE72C9800202D98002034980020E4
:107330003098002024980020209800200010014060
:107340002198002000E100E014970020FEFF7F005C
:1073500008B5FFF717FE104B00200B2218809A701B
:107360000E4B18600E4B18700E4B18700E4B4FF4EE
:107370008012E021C3F8802183F814131A6002F10F
:107380008042A2F56F22C2F8080583F81113074B5B
:10739000D2F804251A6008BD149700203498002004
:1073A0002C9800202D98002000E100E0309800206B
:1073B000074B9B784BB132B128B10368187C20B9D8
:1073C00059745A617047072070470820704700BF02
:1073D000149700202DE9F7431E4FBB7805460E4653
:1073E0009046A3B398B304292FD943697BB3437C58
:1073F0000024012B0DF107000CBF8946A1468DF832
:10740000074000F007F90DF10600FFF72BFDD0B1A2
:1074100001230370104B4560D3F80435C0E904988C
:10742000C0E902369DF806307B709DF8070000F039
:1074300015F924B9094B4FF48012C3F800212046F6
:1074400003B0BDE8F0830424EFE70724F7E708243E
:10745000F5E700BF149700200010014000E100E0B4
:10746000064A92783AB130B1426922B100220274E0
:107470000221FFF719BD0820704700BF14970020B4
:1074800030B54C1CE40012F00303A4B20ED1084D39
:107490002A602244074C2260074A1370074A13707F
:1074A000074A1080074A1846118030BD0720FCE7C4
:1074B000409800203C9800203898002048980020F0
:1074C00044980020469800202DE9F3472B4D2B8847
:1074D0008B4206460C4617464CD34FF000080DF180
:1074E00007008DF8078000F095F8254B254A18789D
:1074F0001178CBB2244909888B4238BF0133C0B21E
:1075000038BF5FFA83F840452ED092F80080137898
:10751000DBB2994286BF0133DBB2002313709DF8C2
:10752000070000F09BF84FF6FF73984524D0DFF872
:1075300060A0DAF800304FEAC80903EB090243F80B
:107540003870A6B19CB1114B28881B68224608FBF5
:107550000030314602F0E2FEDAF800304B44002001
:107560009C8002B0BDE8F0874FF6FF78D7E7002097
:107570009080F6E70920F4E70420F2E74498002021
:107580004898002038980020469800203C98002019
:1075900040980020F8B5124C124D264622782B78E0
:1075A0009A4200D1F8BD23780F48104A0788126824
:1075B0000F48DBB219B202EBC10C006852F831205F
:1075C000BCF8041003FB070090470A4A237812888E
:1075D000DBB29A4286BF0133DBB200233370DDE7B2
:1075E00048980020389800204498002040980020B7
:1075F0003C980020469800201FB50021CDE90210DC
:1076000001AA44F20100ADF80410FCF7B7FE05B082
:107610005DF804FB70B5EFF3108672B60C4A9468FF
:1076200001239CB993600B4B0B4DD3F8801029407C
:107630001160C3F88050D3F8841051604FF0FF32CE
:10764000C3F88420047006B962B670BD0370FAE70F
:10765000CCD9002000E100E0FC06FFBD10B5084BCE
:107660009A685AB150B9EFF3108172B6054A1C6896
:1076700014605C685460986001B962B610BD00BFC8
:10768000CCD9002000E100E02AB1138801448842EF
:1076900004D1184670474FF6FF73F7E75BBA10F84E
:1076A000012B9BB25A40C2F30313534083EA0333C6
:1076B0001BB25A0102F4FF5253409BB2E7E70000AD
:1076C000064B074A00201870064B1A601022C3E9C7
:1076D0000120C3E90300C3E9050070474998002071
:1076E0004C9800200CBE00200020704730B5F9B146
:1076F000124B5C6800220A60E4B1B0F5167F1BD81B
:10770000D8681D680130013CD86018695C604FF48E
:10771000177404FB00540C60012101FA00F499690C
:10772000013000F00F00214318619961104630BD0F
:107730000E20FCE70420FAE70C20F8E70CBE00203E
:10774000F0B51C4B996899B35D691E686C1A04F01A
:107750000F0422464FF4177707FB026C604511D1E6
:10776000012000FA02F598696840986100205E687F
:10777000D3F818C04FF0010E724400250E4402F0F9
:107780000F020AE0013202F00F029542E4D110200C
:10779000EDE749B10139144601250EFA04F414EA63
:1077A0000C0FA6EB0107F4D00DB1C3E90171F0BDD8
:1077B0000420FCE70CBE0020064A13691268013B56
:1077C0004FF4177103F00F0301FB0323C3F85802B2
:1077D000002070470CBE002030B5C0B1B9B10E4BCF
:1077E000DA68B2B1013ADA609A681D6801329A60CB
:1077F0005A694FF4177404FB025404600132D4F840
:107800005802086002F00F025A61002030BD0E20BD
:10781000FCE70420FAE700BF0CBE00203FB40C498F
:10782000086890B10B4B1C687CB10B4A1568CDE918
:10783000025000238DF804300B60136004AB13E991
:107840000700234604B030BC184704B030BC704772
:1078500030BE002034BE002040BE0020DC2810B521
:1078600009D0DD2810D0C02816D1FFF7D7FF0E4B66
:107870000E4A1A6010BD0E4A0E4B19681368581C48
:107880001060C022CA54F2E7094A0A4B196813680B
:10789000581C1060DB22F5E7064B054A196813688F
:1078A0005C1C1460C854E2E774800020FD780F006F
:1078B00030BE002040BE0020C02802BF014B024A5B
:1078C0001A60704774800020FD780F00014608B5EB
:1078D000002001F08DFE00280CBF0420002008BD10
:1078E00008B5DB20FFF7F2FF10B9024B024A1A601D
:1078F00008BD00BF7880002085790F00C02810B433
:1079000009D0DB280BD0094B094A196813685C1CA5
:107910001460C85406E05DF8044BFFF77FBF054BC9
:10792000054A1A605DF8044B704700BF40BE002056
:1079300030BE0020748000205D780F0010B5064A2C
:10794000064C12682368D05CFFF7C0FF10B92368AB
:107950000133236010BD00BF44BE002038BE0020AC
:1079600008B5C020FFF7B2FF28B9034B1B6813B955
:10797000024B034A1A6008BD38BE00207880002000
:107980003D790F0010B50C4A0C4C12682368D35C8B
:10799000C02B03D0DB2B0DD0042010BDDC20FFF763
:1079A00095FF0028F9D12368054A01332360054B70
:1079B0001A60F2E7DD20F2E744BE002038BE002066
:1079C0003D790F00788000207FB5134C134D144E85
:1079D000002001F0EDFDE8B1226852B1296833685A
:1079E000994206D2002001F0EDFD0E4B1B6898472E
:1079F000EEE70D4B1B686BB10292084A0221126838
:107A000003928DF8041004AA12E9070004B0BDE83F
:107A10007040184704B070BD40BE002030BE00204A
:107A20002CBE00207480002034BE0020014B186062
:107A30000020704734BE0020034B1A780AB9012297
:107A40001A700020704700BF28BE0020014B0020A4
:107A50001870704728BE00202DE9F04F85B000282F
:107A60004FD0294F3B78012B07D0022B0CBF0425A8
:107A70000825284605B0BDE8F08F244C244A254E41
:107A8000254DDFF8A0A0DFF8A0B01160002323602F
:107A900002233B70214B30602B6091469846226850
:107AA000D9F800309A4215D3C5F80080FFF758FF87
:107AB000054608BB1A4B1B6801223A70E3B18DF8EA
:107AC0000420326802922268039204AA12E9070095
:107AD0009847CEE7336822689A5CC02A03D02268B0
:107AE0009B5CDB2B04D12B68534508BFC5F800B065
:107AF0002B689847042801D10025BAE71128CED178
:107B0000FAE71025B5E700BF28BE002038BE0020E8
:107B10003CBE002044BE00207880002061790F0028
:107B200034BE00203D790F00E1780F00054B064A76
:107B30001860064B1960064B00201860054B1A6050
:107B4000704700BF40BE0020B9780F002CBE002057
:107B500030BE002074800020064B07481B68DB0005
:107B6000DBB20022037004215B4242708270C3705A
:107B7000FFF772BF70BE002048BE002070B52D4CCC
:107B80002D4E024625462378012B14D013B1022B2B
:107B900020D070BD002AFCD12848FFF761FC08B155
:107BA000FFF72AFD264B1B68002BF2D0254ABDE8C3
:107BB000704010781847012AEBD13168224B06310A
:107BC0001868FFF749FF08B1FFF716FD02232B7075
:107BD0000022D8E7022A19D0032A0ED0002AD8D1D1
:107BE0001A4B16481A6041F67F21FFF7F3FB002875
:107BF000CFD0BDE87040FFF7FFBC154A13680133D2
:107C000003F00703136000232370E1E70F4A1368B2
:107C1000052B0AD001331360074B19680A4B063154
:107C20001868BDE87040FFF717BF064B01221A70B5
:107C3000E9E700BF94BE002088BE00204CBE0020B3
:107C400084BE00208CBE00209CBE002090BE002080
:107C500074BE0020F0B585B004AB03E907009DF8C1
:107C60000400032878D8DFE800F00802A7AA012062
:107C700005B0BDE8F040FFF781BF039E564C032ED0
:107C800040F28680029D6B7813F00F0269D00E2AB5
:107C90007ED1042E59D02A78500656D5110654D5D7
:107CA0001A44AB781A44EB781A4412F0FF024CD114
:107CB000B71E39462846FFF7E7FCEB195A78EB5D0B
:107CC00043EA0223984240D144492A780B6802F0E3
:107CD0000702D8B282422BD1013303F007030B60B5
:107CE000FFF73AFF3E4B012230461A70FFF764FD62
:107CF00008B1FFF781FC38494FF41670FFF7F6FC26
:107D0000002862D0042802D00020FFF775FC354817
:107D10000521FFF70BFF08B1FFF76EFC324B1B6824
:107D2000002B56D04FF0000005B0BDE8F0401847DA
:107D30004FF416712068FFF7F9FE08B1FFF75CFCFD
:107D400005B0BDE8F040FFF707BF20684FF416719B
:107D5000FFF7ECFE00283CD005B0BDE8F040FFF78F
:107D60004BBC2978AA780B441344EA78134413F0E7
:107D7000FF030DD11D4A12680132C1F3C20102F0A6
:107D80000702914204D11A4A03201370FFF7F6FE4E
:107D900025681DB14FF416712846D9E70E494FF4F6
:107DA0001670FFF7A3FC60B1042802D02846FFF745
:107DB00023FC0C480521CBE705210A48C8E703202E
:107DC000CAE720684FF41671C2E720684FF41671B5
:107DD0009FE705B0F0BD00BF98BE002070BE002038
:107DE0006CBE002078BE002080BE002074BE002043
:107DF0008CBE00200220FFF7C1BE0000074B10B56B
:107E0000044618600648FFF711FE08B1FFF7F4FBBF
:107E1000002C0CBF0E20002010BD00BF80BE002033
:107E2000557C0F00184A1948002310B51360184AF2
:107E30001360184A1360184A1370184A1370184BCD
:107E4000184A01211960184B1960184B1970FFF777
:107E5000AFFA08B1032010BDFFF732FC0028FAD1B9
:107E6000FFF7EAFD0028F6D1114C4FF416702146B9
:107E7000FFF73CFC0028EDD120684FF41671BDE8F7
:107E80001040FFF753BE00BF9CBE0020E8AC0F00BF
:107E900088BE002090BE00206CBE002094BE002052
:107EA00070BE0020F57D0F0074BE00208CBE002047
:107EB00098BE00200C4A08B5002313600B4A1360DB
:107EC000FFF712FC08B1FFF797FBFFF7BFFD08B102
:107ED000FFF792FB0648FFF7C3FA042802D10020FF
:107EE000FFF78AFB002008BD84BE002080BE002072
:107EF0004CBE002037B50D46044698B191B10A4BEF
:107F000019780022019259B101A91A70FFF764FC97
:107F1000019B063B2B8023680433236003B030BDF4
:107F20000420FBE70E20F9E76CBE00200438FFF7C1
:107F300007BC4DDF70474EDF70474FDF704750DFA3
:107F4000704743DF704712DF7047000010B52F4BBA
:107F500088B0402283F82723044600230DF1070050
:107F60008DF80730FFF7EFFF9DF80730002B3BD06F
:107F70000120FFF7E0FF0120FFF7DBFF0120FFF703
:107F8000DCFF02A8FFF7DBFF029BDA0702D5002027
:107F900000F05CFE029B9B0702D5022000F056FE1B
:107FA0005CB11B4B2A229A720022DA72194B1A79A1
:107FB000013A1A715A88173A5A804FF0805316497D
:107FC0005A6E1B6E03A802F0D1F9144903AB1022BC
:107FD000013A13F8010B21F8020B12F0FF02F7D15E
:107FE00001F0DAFF08B010BD01A88DF80430FCF7ED
:107FF0009DFE0B4B039303A8FCF7C0FEFCF7C4FEE9
:108000004FF08043D3F838340293BDE700E100E03D
:10801000FA800020988000209CAD0F000E81002087
:108020004D8C0F0008B5134AD2F800350BB300236E
:10803000C2F80435BFF36F8FBFF34F8F0E49802016
:10804000C1F88400D2F80013C2F80813C2F8003552
:10805000BFF36F8FBFF34F8FFFF773FF1846FFF724
:108060006AFF1846FFF765FF1846BDE80840FFF7AE
:1080700064BF08BD0070024000E100E00120FCF791
:10808000D3BC0220FCF7D0BC38B50D460446002115
:1080900010461A46FCF746F92A781E2A04D801230E
:1080A0009340074A134208D100232022052120468D
:1080B00001F0B0FC4FF0FF3038BD0020FCE700BFFE
:1080C00001000048F8B5069E14460D4632460021D0
:1080D00018461F46FCF726F96CB10A4B1B68DB07F4
:1080E00000D500BE4FF0FF300AE0284600F088F8C7
:1080F000013504F50074B44207EB0401F5D32046C2
:10810000F8BD00BFF0ED00E02DE9F041069E0C4FF8
:108110000D4698460024B44208EB04010ED23B46BB
:108120000022284600F038F9002803DC06D030464B
:10813000BDE8F081013504F50074ECE72046F7E76F
:10814000A0BE002030B5104D2B6889B0CBB16A6855
:10815000934216D8062003ACFCF766FC14220021DB
:108160002046FCF7DFF800238DF80C30ADF80E3018
:108170002B681B020693079B009394E80F00FCF703
:1081800027FF09B030BD00BFA0BE00204FF4FA5356
:108190000B604FF4007313807047000013B5104C50
:1081A0002368BBB943F208031868FCF7F3FEA0B1DB
:1081B00001A8FDF781F8019B9B6813F0FF0F1CBF1E
:1081C00023F0FF0303F580735A1E033288BF4FF478
:1081D00007232360206802B010BD4FF48073F8E7D6
:1081E000C4BF002010B50023934200DB10BD0C7803
:1081F0001CB10131C4540133F6E72024FAE7000032
:108200002DE9F0410C4605464FF40072002120464E
:10821000FCF788F865B93E225949204602F07EF8FD
:10822000552384F8FE31AA2384F8FF31BDE8F0819C
:10823000402D32D86B1E1F2B88BFA5F121030BB335
:108240001D02C3EBC35305F5807604EB4324032DD5
:1082500005F1010712D9FFF7A1FFC0F31620033083
:10826000A8420BD3FFF79AFFC0F316200330A842B1
:1082700014BFBBB24FF6FF7324F81530BE423D4623
:10828000E5D1D3E7F822227004F109012246FF204C
:108290009142D5D002F8010FFAE7442D38D8413D7C
:1082A00007D120460B223749FFF79CFF2823E372B2
:1082B0002034354B2E01002703EB05256FF07308A2
:1082C000022EB3DC0B2229462046FFF78BFF5023FA
:1082D00046223B216374E3746376B31C677384F8AE
:1082E0000E80E1732274A2742775677584F8168076
:1082F000E17522766383E86830B102F057F8E061F7
:10830000013620341035DBE7FFF748FF4000F6E781
:10831000A5F14502012A0DD81B4B03EB0213DD68C2
:10832000284602F043F8294602462046BDE8F041BF
:1083300001F0F4BF05F219263602B6F52D2FBFF471
:1083400075AF124B236003F1144303F52C1303F6AE
:1083500002336360473D0E4BC4F8FC316561FFF7A3
:108360001DFF4FF40053000A4FF48072A360094BC5
:10837000A061E6602261E361314604F12000D5E7A7
:10838000A7AD0F00D2AD0F0060AE0F005546320A08
:10839000306FB10A4028A5AD38B51D460A68354B87
:1083A0009A420C4662D103F114434A6803F52C1338
:1083B00003F602339A4259D1D1F8FC212E4B9A424E
:1083C00054D18B689A0451D5C9692C4A91424DD138
:1083D000DB071DD42369B3F5807F19D8E26812F05A
:1083E000FF0F15D1B2F5183F12D31344B3F52D2F5B
:1083F0000ED8234B1A7822B1002205201A70FCF700
:1084000013FB01232269E06804F12001FCF7BAFBA9
:1084100015B94FF4007038BDA369002BF9D02A6854
:10842000934207D040F6D3018B4200D80AB14FF0F7
:10843000FF332B60636940F6D3029342E9D803F01F
:10844000070105EBD30301228A40197AD2B2114207
:1084500004D168680A4301301A726860D5E90032B5
:108460009A42D6D30120FCF76FFBD2E74FF0FF30E2
:10847000D1E700BF5546320A306FB10A4028A5AD9A
:108480002E810020BFF34F8F0549064BCA6802F4C6
:10849000E0621343CB60BFF34F8F00BFFDE700BF27
:1084A00000ED00E00400FA05054B1B68082B01BF36
:1084B000044B1868B0FA80F0400918BF00207047DC
:1084C000300100103401001008B54FF08043002245
:1084D000C3F80C21C3F81021C3F838254FF080529F
:1084E00003F54043D2F80414C3F82015D2F8081459
:1084F000C3F82415D2F80C14C3F82815D2F81014B8
:10850000C3F82C15D2F81414C3F83015D2F8181487
:10851000C3F83415D2F81C14C3F84015D2F820144F
:10852000C3F84415D2F82414C3F84815D2F8281417
:10853000C3F84C15D2F82C14C3F85015D2F83014E7
:10854000C3F85415D2F83414C3F86015D2F83814AF
:10855000C3F86415D2F83C14C3F86815D2F8401477
:10856000C3F86C15D2F84424C3F87025FFF79CFFBC
:1085700010B1444B444A1A60FFF796FF18B1434BC1
:10858000FB22C3F81825FFF78FFF48B14049414B44
:108590000A681B6822F00F0203F00F0313430B60FD
:1085A000FFF782FF18B13C4B4FF400721A604FF096
:1085B0008043D3F80024D10744BF6FF00102C3F811
:1085C0000024364AD2F8883043F47003C2F8883069
:1085D000BFF34F8FBFF36F8F4FF01023D3F80C22F0
:1085E000D2071ED52E4B0122C3F80425D3F8002450
:1085F000002AFBD04FF01022D2F80C3223F00103F6
:10860000C2F80C32264B1A46D3F800140029FBD0CE
:108610000021C3F80415D2F80034002BFBD0FFF77B
:1086200031FFD3F80022002A03DBD3F80432002BF9
:1086300023DA1B4B0122C3F80425D3F80024002AB7
:10864000FBD04FF010221221C2F80012D3F8002400
:10865000002AFBD04FF010231222C3F80422104B43
:108660001A46D3F800140029FBD00021C3F80415E2
:10867000D2F80034002BFBD0D1E70A4B0A4A1A602B
:1086800008BD00BF8C5600404881030000F0004048
:10869000E40E0040580200104096024000ED00E059
:1086A00000E00140308100200090D003064B93F899
:1086B000C0202AB9054B1B68DB0704D500BE7047F4
:1086C000002283F8C0207047C8BF0020F0ED00E012
:1086D0000D4B93F8C020014662B10C4A5268C2F3B8
:1086E00008021AB101220A4800F0AEBE93F8C02079
:1086F000002AFBD1012283F8C0200A60BFF36F8FEC
:10870000BFF34F8F704700BFC8BF002000ED00E0EF
:10871000D1860F00F8B50F490F4E00F59473182558
:1087200051F823404543142303FB00137259C3F847
:108730000027E4B2C3F80447084B03EB8000FFF7BF
:10874000C7FF7359771923447351FB881C44A4B2A3
:10875000FC80F8BD00700240C8BF002028700240B5
:1087600010B4104B182101FB00314A8A0B8ACC68E7
:108770009B1A0A7D9BB2934228BF134614224243A0
:1087800002F1804202F51C32C2F80046C2F80436FB
:108790002344CB60044B5DF8044B03EB8000FFF7F0
:1087A00097BF00BFC8BF002004700240012070477F
:1087B000014B80225A60704700E100E0024B8022AA
:1087C000C3F88420704700BF00E100E070477047A5
:1087D00010B58878097900F07F0318240C22C009AD
:1087E0005C4302FB0044114A22441172012202FA46
:1087F00003F40F4978B90C3302FA03F3C1F80433D8
:10880000D1F814352343C1F81435BFF36F8FBFF38C
:108810004F8F012010BD023302FA03F3C1F8043375
:10882000D1F810352343C1F81035EEE7C8BF00205A
:1088300000700240F7B51D4601F07F001823CE09F5
:108840001B4C0F4603FB00F10C2303FB0613E1183E
:10885000E25000238D80CB8078B975B91548FFF7B9
:1088600037FFFFF723FF00952B462A463946284657
:1088700000F0A0FD012003B0F0BDAEB9182303FB4A
:108880000044637A13B1FFF745FFF3E70A4B30B9B1
:108890000122DA64BFF36F8FBFF34F8FEAE700F571
:1088A000947043F82060F5E7FFF75AFFE2E700BF56
:1088B000C8BF0020507002400070024091B1CA0948
:1088C00001F07F03084A0BBF03F5887303F5847337
:1088D00002EB830352F8230008BF5868003018BF2A
:1088E00001207047084670470070024011F07F0F6A
:1088F000064B0BBF012241F480715A65C3F818156D
:10890000BFF36F8FBFF34F8F704700BF00700240FF
:108910004B0606D0034BC3F81815BFF36F8FBFF398
:108920004F8F70470070024011F07F000DD0182368
:108930005843C9090C2303FB0101044801448888FA
:10894000CB88984294BF002001207047C8BF002008
:1089500010B500221146930003F1804303F51C3348
:108960000132082A59609962F5D1064B064C5962CA
:10897000C422996420460021FBF7D4FC40232375D0
:10898000237210BD00700240C8BF00202DE9F04FD7
:10899000854B864AD3F80003002387B01C46012587
:1089A0001E4605FA03F1014209D052F8237037B18F
:1089B0000C4342F82360BFF36F8FBFF34F8F013337
:1089C000192BEED1E50706D5FFF7C2FF01221146AC
:1089D000002000F0C3FC764B23400BB1FFF766FE8E
:1089E00020022BD5704BD3F88014C9B28DF810102B
:1089F000D3F88424D2B28DF81120D3F888048DF8EE
:108A00001200D3F88C048DF81300D3F890048DF87D
:108A10001400D3F894048DF81500D3F898048DF859
:108A20001600D3F89C348DF81730490601D1052A79
:108A300004D0012204A9002000F0A3FC5D4FDFF860
:108A400068A13E460025B8464FF001094FF0140BCF
:108A500005F10C0309FA03F32342E9B219D00BFB29
:108A600005A30020D3F80827182303FB0583D2B2FF
:108A7000587296F808C094457BD1DB88B2889A4238
:108A800077D9002D70D1CAF84C90BFF36F8FBFF328
:108A90004F8F0135082D06F11806D9D1464B2340DA
:108AA000002B57D0404BD3F86C94C3F86C94BFF3B1
:108AB0006F8FBFF34F8F14F4806607D0D3F88064B4
:108AC000D3F880341A06C6F3C0165FD50023DFF84A
:108AD000E4A0039300254FF0010B0BFA05F313EA12
:108AE000090FE8B201D1A5B99EB12F4B142202FBA8
:108AF0000533D3F80426182303FB0583598A0A4457
:108B000092B25A825A8ABAF81010914240D9FFF7AD
:108B100027FE0135082D0AF1180ADED100250126AD
:108B20004FF0180A05F1100306FA03F313EA090FD0
:108B3000E8B202D14DB9039B3BB10AFB0583B9886A
:108B4000DA8891422ED9FFF7E5FD0135082D07F1AE
:108B50001807E7D1A30204D501220321002000F069
:108B6000FDFB07B0BDE8F08F05F594734AF82300CC
:108B70008BE7182303FB0583DA88B280DA88CDF807
:108B800000900023184600F015FC82E701239EE7C1
:108B90005A8ACDF800B0002340F08001184600F05A
:108BA00009FCB6E75E72D0E7007002400071024037
:108BB000FCFB1F00C8BF002000040001084B1B681D
:108BC000082B06D1074B1868431E012B03D8012040
:108BD000704700207047C31E58425841704700BF7D
:108BE000300100103401001042DF704743DF70474E
:108BF00044DF704712DF704707B500230DF107000F
:108C00008DF80730FFF7F6FF9DF80700003018BF1A
:108C1000012003B05DF804FB07B5FFF7EDFF48B195
:108C200001A8FFF7E5FF0198003018BF012003B04D
:108C30005DF804FB4FF08043D3F80C0400F0011002
:108C4000A0F1011358425841F1E70000012813B583
:108C5000024600F09F80002853D0022840F0938005
:108C6000614BD3F800241205FBD54FF40062C3F822
:108C70000024BFF36F8FBFF34F8F5C4B002119604F
:108C8000BFF36F8FBFF34F8F594A106803F58E23E0
:108C900003F21443002878D149F27531116018604D
:108CA0001160FFF78BFF40B11068524B00286ED166
:108CB00049F275311160186011604C4B40F2E3725B
:108CC0001A60043340221A60BFF36F8FBFF34F8FD7
:108CD000A3F6040380224849C3F81C25C3F80413F3
:108CE0004649C1F884214A601A46FFF795FF0028DB
:108CF000FBD00123C2F80435BFF36F8FBFF34F8F52
:108D000041E0394BD3F80025002A3CD14FF40062F2
:108D1000C3F80024BFF36F8FBFF34F8FFFF74EFFF1
:108D2000334B40B11868334A032100BB49F2753018
:108D30001860116018601868314AC021C8B949F23A
:108D40007530186011601860274B0122C3F80025A8
:108D5000BFF36F8FBFF34F8FFFF75EFF98B9FFF739
:108D60004BFF40B102B0BDE81040FFF73DBF1160BE
:108D7000E1E71160E8E7234B18601B680193019B52
:108D80004FF080431A6002B010BD196089E70022DD
:108D90001A6092E7144BD3F800150029F3D0002194
:108DA000C3F80415BFF36F8FBFF34F8F13488024B0
:108DB000C0F88440D3F80003C3F80803C3F80015D3
:108DC000BFF36F8FBFF34F8FFFF716FF48B1FFF769
:108DD0000DFF01220221002002B0BDE8104000F08A
:108DE000BDBA094B1A60F4E70070024000780240F7
:108DF00000EC064014ED06400514C00100E100E05F
:108E000014EC06400001004004000040C3809DF8BF
:108E10000030037200234381016083818280C3811B
:108E20000120704710B50446084663899BB2ABB178
:108E3000E2882368E18902FB013101F06FFAE389DE
:108E4000A1885A1CB2FBF1F301FB13239BB2E3810F
:108E50006389013B9BB26381012010BD1846FCE78A
:108E60002DE9F0414489A4B205468846164684B1EE
:108E700043899A4288BF46894FF0000788BFB6B23F
:108E8000BCB2A64205D941462846FFF7CBFF0137C1
:108E900010B92046BDE8F081EB889844F0E710B5A2
:108EA000438982889A42044601D1007AD8B1E28887
:108EB0002368A08902FB003001F030FAA389A18861
:108EC0005A1CB2FBF1F301FB13239BB2A38163890C
:108ED000994215BF6389A38901339BB216BF9BB228
:108EE000E3816381012010BD2DE9F04107460E4664
:108EF000144652B1904600254545ACB205D03146E6
:108F00003846FFF7CCFF013510B92046BDE8F081A7
:108F1000FB881E44F0E7002343818381C381012045
:108F20007047000038B50E4D044621220021284626
:108F3000FBF7F8F91022FF21681CFBF7F3F9102268
:108F4000FF2105F11100FBF7EDF9204600F0AEFA24
:108F5000204600F0BFFB2046BDE8384000F06EBD63
:108F60008CC0002070B505460E4614462AB9037819
:108F7000012B02D11046FFF721FC3146281DFFF7D7
:108F80008EFF06462CB92B78012B02D12046FFF725
:108F90000FFC304670BD000010B50D4C201DFFF7D2
:108FA000BAFF0C4B1C6000F069FB00F03FFD002095
:108FB000FFF7FCFB044630B9074B1B68DB0700D505
:108FC00000BE204610BD0020FFF7F2FBF9E700BF0E
:108FD00034810020B0C00020F0ED00E02DE9F04F1A
:108FE00085B000F0E7FF002800F04781DFF8D49259
:108FF000AE4ECA46D9F800402378012B02D100209A
:10900000FFF7DCFB01A9201DFFF70CFF2378012BE4
:10901000054602D10020FFF7CBFB002D00F02D818B
:109020009DF80530013B072B00F2658101A252F843
:1090300023F000BF97920F00C9920F00F58F0F0029
:10904000F7920F00F7920F0055900F0047920F0014
:10905000E9920F0000209DF8044000F03DFA9DF8D1
:10906000082012F07F0540F0AC809DF80930053BE8
:10907000042B00F2C880DFE803F0037AC69F0D00DE
:1090800002A9204600F01DFA9DF80A102046FFF7BD
:109090009DFBAFE79DF80A50854F29462046FFF714
:1090A00096FB844B3D701B685B685BB93268D507E3
:1090B00001D4002300E000BE1A4602A9204600F0B9
:1090C00011FA97E75A8803F1090503EB020B5D4596
:1090D00005D3794B002BECD0FEF7D0FFE9E76B7896
:1090E0000B2B02D12B781D44F1E7042B0ED16B79A9
:1090F000022B04D0082B09D14FF0010801E04FF0FA
:109100000008AB783B445A78FF2A04D03368D8076C
:10911000CFD500BECDE783F801804FF00003ADF856
:109120000230664B03EB48130DF102029B6829469F
:10913000204698470028E9D0BDF802000828E5D964
:109140002A4600235178052909D192F802C00CF073
:109150007F0107EB410101EBDC1181F811801178EF
:109160000B449BB298420A44ECD80544AFE7BDF8E3
:109170000A301A0A022A0CD0032A11D0012A03D17C
:109180004C4B1B681A68D2B99DF8040000F096F9A0
:1091900030E7484B1B685A685388002B8DD1F3E7A2
:1091A000474A9189DBB29942EED9926852F823205E
:1091B000002AE9D01378F0E701233D4A7DE7122326
:1091C0007BE702F01F02012A14D19DF80C20384BD6
:1091D00013445B78012BD7D8384D05EB431528692C
:1091E00000F07AF9EB6802A92046984700287FF43E
:1091F00001AFC9E7022D06D19DF80920012A12D03E
:1092000032B1032A19D03368D907BDD500BEBBE7F8
:109210009DF80C102046FFF751FB2B46ADF80200DD
:109220000DF1020249E79DF80C102046FFF770FB94
:1092300002A9204600F045F9DCE69DF80C10204616
:10924000FFF754FBF4E79DF8081011F07F0207D1F7
:10925000039B9DF809209DF8040000F06DF9C9E614
:10926000134B03EB420303EBD1135A7C012A07D9BA
:109270000E4B1B68DA0700D500BE05B0BDE8F08FC5
:109280000E4B9DF8040003EB42139DF809205C6926
:10929000039BA047AEE69DF80400FFF743FEDAF813
:1092A00000000430FFF737FEA4E600BFF0ED00E059
:1092B0008CC00020488100207D800F0054AF0F003B
:1092C0007C800020B0C000209DF80400FFF72AFE3B
:1092D000DAF800000430FFF71EFE0A4B002B3FF4C3
:1092E00089AEFEF7CEFE85E6029B002B3FF482AEF0
:1092F000039898477EE63368DB077FF57BAE00BEB8
:1093000078E600BF83800F0010B54378013B044628
:109310000A46072B1DD8DFE803F004041C1C1C04BC
:109320000B040C4B0146BDE810401868FFF71ABE4D
:109330000379590601D183685BB1064B2146186851
:10934000FFF710FE637923B1034B1B68DB0700D5E1
:1093500000BE10BDB0C00020F0ED00E01FB500233E
:109360008DF804008DF8051001A81146CDF80630DF
:10937000CDF80A30ADF80E30FFF7C6FF05B05DF846
:1093800004FB1FB5002314460822CDF80630CDF8A3
:109390000A30ADF80E308DF8040006230DEB020004
:1093A0008DF8053000F0BAFF214601A8FFF7ACFFA9
:1093B00004B010BD1FB500248DF804000720CDF8BF
:1093C00006408DF805008DF8081001A89DF81810CA
:1093D000ADF80A4003928DF80930FFF795FF04B00D
:1093E00010BD00002DE9F843089D07460C46904645
:1093F000994602266378052B04D1E17801F0030138
:10940000414506D00F4B1B68DA0700D500BE00208F
:1094100009E021463846FFF7DBF930B9094B1B68F4
:10942000DB07F4D500BEBDE8F883A178CB0914BFF3
:10943000297089F800102378012E1C44F3D00126EE
:10944000D8E700BFF0ED00E01FB500230193CDE9A0
:1094500002010823114601A88DF80530FFF754FFDB
:1094600005B05DF804FB000070B50E49CB898C890E
:10947000E41AA4B291F90030402C28BF4024002BFC
:1094800005460CDA89680848224600F047FF80212B
:1094900023462846044ABDE87040FFF7CBB90021B7
:1094A000F6E700BFB4C0002098DA002014220021A3
:1094B0000148FAF737BF00BFB4C000200021FFF712
:1094C00015BA91F90030002B4FF000031A46ACBFDB
:1094D00080211946FFF7AEB9014B1861704700BFF4
:1094E000B4C00020F8B5124D0C460746086849681C
:1094F000AA602E4603C6E188994228BF1946A98171
:109500000021E98162B15BB13846FFF7ADFF28B9B0
:10951000084B1B68DB0708D4002000E00120F8BDE1
:1095200021463846FFF7CDFFF1E700BEF7E700BF61
:10953000B4C00020F0ED00E070B51A4C1E4694F95E
:109540000030002B054604DB32461749A06800F0C6
:10955000E5FEA368E28933443244A360A38992B252
:109560009342E28101D03F2E16D8236953B90D49A9
:109570002846FFF7A6FF68B90C4B1B68DB070FD422
:10958000002070BD0749284698470028EFD128469B
:10959000FFF794FF0120F4E72846FFF765FFEAE7AD
:1095A00000BEEEE7B4C0002098DA0020F0ED00E045
:1095B000034A4FF40B6303FB0020408B704700BF4E
:1095C000C8C0002007B5094A4FF40B6303FB002015
:1095D0000DF107011030FFF725FC20B19DF80700C1
:1095E00003B05DF804FBFF20FAE700BFC8C000200D
:1095F00007B5084A8DF807104FF40B6303FB0020F2
:109600000DF1070101222030FFF76EFC03B05DF879
:1096100004FB00BFC8C000202DE9F041154F4FF4F6
:109620000B6444433E190020B178FFF77DF9804672
:1096300010B10020BDE8F08104F507653D4404F158
:109640002000402229463844FFF70AFC034608B9A7
:109650000120EFE73279D207EBD52A46B1784046B0
:10966000FFF7E8F80028F3D1034B1B68DB07E0D5D0
:1096700000BEDFE7C8C00020F0ED00E073B5144C79
:109680004FF40B6200212046FAF74CFEFF23637172
:109690004FF442430125E38008230026237304F19D
:1096A00030012B4600954FF4806204F110002581B3
:1096B0006681FFF7ABFB00962B464FF4806204F502
:1096C000866104F12000FFF7A1FB02B070BD00BF6E
:1096D000C8C0002010B5084C052200212046FAF72A
:1096E00021FE04F11000FFF716FC04F12000BDE894
:1096F0001040FFF710BC00BFC8C00020F7B58B7941
:10970000022B0746154607D02B4B1B68DB0700D5FD
:1097100000BE002003B0F0BDCB79073BDBB2F72BD6
:10972000F2D9264EB378002BEED18B7833700C78BB
:1097300009230C44138005E023782A8813442B80E6
:1097400023781C446378242BF6D0052B12D12146B4
:109750003846FFF73DF828B9174B1B68DA07D8D50C
:1097600000BED7E7A378737023782A8813442B8030
:1097700023781C446378042B14D163790A2B11D10C
:1097800023782A8813442B8021780D4B00930222E2
:10979000013321443846FFF725FE0028DCD02B8812
:1097A0000E332B804023074AF1783846FFF742F802
:1097B0000028AFD1D0E700BFF0ED00E0C8C0002026
:1097C000CAC00020F8C8002008B50B7803F0600379
:1097D000202B0AD14B78202B05D1054B1BB1054915
:1097E0000020AFF30080012000E0002008BD00BF92
:1097F00000000000CEC0002010B50B7803F060031D
:10980000202B0C4607D0124B186810F0010001D035
:1098100000BE002010BD4B78202BFAD3212B11D98C
:10982000222BF6D10B4B4A881A71FFF74AFE0A4BDE
:1098300063B161880020C1F3400201F00101AFF380
:10984000008003E00723054AFFF74CFE0120E1E713
:10985000F0ED00E0C8C0002000000000CEC00020F5
:109860002DE9F8431C4CE2788A42074602D00120D9
:10987000BDE8F883DFF870902546E61804F110087B
:10988000B54215D1154B2BB1638B9BB213B10020A0
:10989000FEF79AF84023124AE1783846FEF7CAFFED
:1098A0000028E4D10F4B1B68DB07E1D500BEDFE7E2
:1098B00005F503614046FFF7F2FAB9F1000F09D050
:1098C0006379FF2B06D095F83018994202D1002019
:1098D000AFF300800135D3E7C8C00020C9790F007D
:1098E000F8C80020F0ED00E00000000038B5174B8C
:1098F000174C0546A3B1607BAFF3008080B9A36825
:10990000A362012384F82C3042F2077384F83E00EE
:10991000A38794F82F102846BDE83840FEF7E6BF2D
:10992000A26BA36894F82F109B1AB3F5805F28BF31
:109930004FF480539BB2074A2846FEF77BFF20B9BD
:10994000054B1B68DB0700D500BE38BD00000000DA
:1099500078D9002078C90020F0ED00E07FB52A4CCE
:10996000022204F11601064603A8A56800F0D6FC01
:10997000BDF80C2052BA92B204F11101B5FBF2F518
:1099800003A8042200F0CAFCA06BA36803991B1A69
:10999000B3F5805F28BF4FF48053AAB209BAB0FB79
:1099A000F2F5009302FB1502184B607B2944FEF789
:1099B00089FB031E94F82E1011DAA368A26B9B1A80
:1099C000A362012384F82C3042F20503A3873046BA
:1099D000002384F83E30FEF789FF04B070BD05D146
:1099E00000931A463046FFF7E5FCF6E79BB2074ABC
:1099F0003046FEF71FFF0028EFD1054B1B68DB0741
:109A0000EBD500BEE9E700BF78D9002078C9002077
:109A1000F0ED00E0044880F83C1080F83D2080F82C
:109A20003E300120704700BF78D90020402200213D
:109A30000148FAF777BC00BF78D900204022002106
:109A40000148FAF76FBC00BF78D90020F7B58B79D1
:109A5000062B06460C46174602D1CB79502B08D070
:109A6000144B1B68DA0702D4002003B0F0BD00BE1F
:109A7000FAE7114D097805F12E030093022205F152
:109A80002F032144FFF7AEFC28B90A4B1B68DB0704
:109A9000EAD500BEE9E7A37885F82D3017233B808F
:109AA0002A461F2395F82F103046FEF7C3FE0028E4
:109AB000DBD1EAE7F0ED00E078D900200B7803F085
:109AC0006003202B07B507D00D4B186810F001007C
:109AD0000AD000BE002007E04B78FE2B07D0FF2BFA
